:100F590073746100203D2000526561643A006900A4
:0A0F69006275666665725B695D00E3
:100F1A007FFF120F357FFF120F357FFF120F357FCC
:0B0F2A00FF120F357FFF120F357FFF15
:100F3500E4FEC293EF30E704D2918002C291EF251F
:100F4500E0FF30920543070180035307FED2930E5D
:030F5500BE08DFF4
:010F58002276
:020E3100AD070B
:100E3300120F1AC297ED4440FF120F35AF31AE3097
:100E4300AD2FAC2E7818120538120F35AF31AE30F6
:100E5300AD2FAC2E7810120538120F35AF31AE30EE
:100E6300AD2FAC2E7808120538120F35AF31120FA3
:100E7300357F95120F35E4FD7FFF120F35BFFF0756
:090E83000DEDD394C840F1D297A3
:010E8C002243
:100DCC00D297E4FD7FFF120F350DBD64F7E4FBE411
:100DDC00F531F530F52FF52EFF120E310BEBD394C8
:100DEC00C840037F0122BF01E6E4FBE4F531F53096
:100DFC00F52FF52E7F01120E310BEBD394C8400367
:100E0C007F0122EF70E5F531F530F52FF52E7F3BA4
:100E1C00120E31E4F531753002F52FF52E7F1012DC
:040E2C000E317F0004
:010E3000229F
:0E0CF4008F298E288D278C268B2A8A2B892CFF
:100D0200E4FBAF29AE28AD27AC26780912054B8F3C
:100D1200318E308D2F8C2E7F11120E310BEBD3942E
:100D2200C840037F0122EF70D9C2977FFF120F35AF
:100D3200BFFEF8E4FDFC7FFF120F35AB2AAA2BA9F8
:100D42002C8D828C83EF1203840DBD00010CE4B55F
:0D0D520005E4ECB402E0120F2ED2977F00F2
:010D5F002271
:0E0C70008F358E348D338C328B368A3789382F
:100C7E00E4FBAF35AE34AD33AC32780912054B8F91
:100C8E00318E308D2F8C2E7F18120E318F390BEB4B
:100C9E00D394C840037F0122E53970D6C297120F54
:100CAE001A7FFE120F35E4FDFCAB36AA37A9388D3C
:100CBE00828C83120357FF120F350DBD00010CE419
:100CCE00B505E6ECB402E2120F298F39E539541F4F
:100CDE0064056005D2977F01227FFF120F35EF600A
:050CEE00F8D2977F0021
:010CF30022DE
:0606CB008B088A09890A70
:1006D100E4F531F530F52FF52E7F09120E31EF607B
:1006E100037F0122C2977FFF120F35BFFEF8E4F5A9
:1006F1001BF51C7FFF120F35740B251CF8A607058F
:100701001CE51C7002051BC39410E51B940040E31B
:10071100120F2ED297E50BC413135403751B00F56A
:100721001C451B7073E5155480C41313135401FF4A
:10073100E510540F2FFDE433FCE514540325E0FFCD
:10074100E433FEED2FFFEC3ECF2402F51CE43FF530
:100751001BE51275F004A4FFE513C4131354037CC5
:10076100002FFDEC35F0FCE51154037F0025E02559
:10077100E0FEEF2DFFEC3ECF2401F51EE43FF51D19
:10078100FEAF1EE4FCFDE51C24F7F9F812054BABA6
:1007910008AA09A90A12055EE51C6401451B702718
:1007A100E513FE7C00E42514FFEC3ECF2401F51E89
:1007B100E43FF51DFEAF1EE4FD780A12054BAB08C0
:0907C100AA09A90A12055E7F00D5
:0107CA00220C
:10059C00120FB1120DCC8F217BFF7A0F7959120FEC
:1005AC009E7BFF7A0F795D120F9EE521C39400AFFD
:1005BC0021E4FCFDFE50051207CB80031209AC129E
:1005CC000FDAE4F51FF52074002520F58274003550
:1005DC001FF583E4F00520E5207002051FB400E749
:1005EC00E51FB402E27BFF7A0F7961120F9E7FC880
:1005FC007E00120F737B017A0079007F417E027DB1
:10060C00007C00120CF48F217BFF7A0F7959120FAA
:10061C009E7BFF7A0F795D120F9EE521C39400AF8C
:10062C0021E4FCFDFE50051207CB80031209AC122D
:10063C000FDA7FC87E00120F73E4F51FF5207BFFE5
:10064C007A0F7967120F9E7BFF7A0F795D120F9EDE
:10065C00C3E51F9400AE1FAF20E4FCFD500512074C
:10066C00CB80031209AC120FDA7BFF7A0F79691277
:10067C000F9E7BFF7A0F795D120F9E74002520F57B
:10068C00827400351FF583E0FFC394005009E4FC2D
:10069C00FDFE1207CB801574002520F58274003501
:1006AC001FF583E0FFE4FCFDFE1209AC120FDA0526
:0E06BC0020E5207002051FC3E51F9402408058
:0106CA00220D
:0B0FCF00EF1FAC0670011E4C70F622F4
:100F7300AB07AA06EB1BAE0270011A4E60097FE8AD
:080F83007E03120FCF80ED2266
:100A8100EFB408004003020B30900A91F828287354
:100A9100020AA9020ABA020ACB020ADC020AED0220
:100AA1000AFE020B0F020B20ED1392B8EDC3137077
:100AB1000443B7FE2253B70122ED1392B9EDC313DC
:100AC100700443B7FD2253B70222ED1392BAEDC36E
:100AD10013700443B7FB2253B70422ED1392BBED0D
:100AE100C313700443B7F72253B70822ED1392BC26
:100AF100EDC313700443B7EF2253B71022ED1392E5
:100B0100BDEDC313700443B7DF2253B72022ED13A9
:100B110092BEEDC313700443B7BF2253B74022ED19
:100B21001392BFEDC313700443B77F2253B78022E2
:100E8D000D0A0009004D6F6E64617900547565732C
:100E9D00646179005765646E6573646179005468A7
:100EAD00757273646179004672696461790053618A
:100EBD007475726461790053756E6461790057655C
:090ECD00656B5F4552524F520063
:100FB100759850438920758DFD758BFDE4F587D2B9
:020FC1008E227E
:070F8B001203B8EF2430FF50
:0C0F9200C28C8F993099FDD28CC299223C
:100F9E0012033EFF600C120F92740129F9E43AFA23
:030FAE0080EE22B0
:090FDA007BFF7A0E798D020F9E57
:090FE3007BFF7A0E7990020F9E4B
:040BDD008E418F4274
:100BE100E4FBFA854143854244AE43AF447C007D3A
:100BF1000A1203B88E438F440BBB00010AD3E544AC
:100C01009400E543940050E1D3EB9400EA94004052
:100C11005D8B828A83754300754401D3E58294011B
:100C2100E58394004019E582158270021583AE4375
:100C3100AF447C007D0A1203A68E438F4480DCAC56
:100C410043AD44AE41AF42120F8BAC43AD44AE4114
:100C5100AF421203B8AC43AD441203A6C3E5429FB1
:0E0C6100F542E5419EF541EB1B709D1A809A0D
:010C6F002262
:040B31008E458F4618
:100B3500E4FBFAC3E5456480948050107F2D120FC5
:100B450092C3E49546F546E49545F54585454785C3
:100B55004648AE47AF487C007D0A1203B88E478FE2
:100B6500480BBB00010AD3E5489400E547940050C3
:100B7500E1D3EB9400EA9400405D8B828A8375474C
:100B850000754801D3E5829401E58394004019E599
:100B950082158270021583AE47AF487C007D0A122C
:100BA50003A68E478F4880DCAC47AD48AE45AF46BF
:100BB500120F8BAC47AD48AE45AF461203B8AC47F4
:100BC500AD481203A6C3E5469FF546E5459EF545A6
:070BD500EB1B709D1A809AD2
:010BDC0022F6
:0809AC008F298E288D278C266F
:1009B400E4F52CF52D8E2A8F2BAE2AAF2B7C007DEF
:1009C4000A1203B88E2A8F2B052DE52D7002052CF3
:1009D400D3E52B9400E52A940050DED3E52D940052
:1009E400E52C94005003020A80AB2DAA2C752A0032
:1009F400752B01D3EB9401EA94004016EB1B7001B4
:100A04001AAE2AAF2B7C007D0A1203A68E2A8F2BE6
:100A140080E1AE2AAF2BAB07AA06E4F9F8AF29AE02
:100A240028AD27AC26120498120F8EAE2AAF2BAB3A
:100A340007AA06E4F9F8AF29AE28AD27AC261204BC
:100A440098A804A905AA06AB07AE2AAF2BE4FCFDBF
:100A540012040DA804A905AA06C3E5299FF529E5F2
:100A6400289AF528E52799F527E52698F526E52D12
:0C0A7400152D60030209DF152C0209DFBC
:010A80002253
:0807CB008F298E288D278C2652
:1007D300E4F52CF52DEC3350187F2D120F92AF2931
:1007E300AE28AD27AC2612052A8F298E288D278C9B
:1007F3002685282A85292BAE2AAF2B7C007D0A1259
:1008030003B88E2A8F2B052DE52D7002052CD3E519
:100813002B9400E52A940050DED3E52D9400E52CBB
:10082300940050030208BDAB2DAA2C752A00752B2A
:1008330001D3EB9401EA94004016EB1B70011AAE4E
:100843002AAF2B7C007D0A1203A68E2A8F2B80E110
:10085300AE2AAF2BAB07AA06E4F9F8AF29AE28AD51
:1008630027AC26120ED6120F8EAE2AAF2BAB07AAD9
:1008730006E4F9F8AF29AE28AD27AC26120ED6A8A8
:1008830004A905AA06AB07AE2AAF2BE4FCFD1204AC
:100893000DA804A905AA06C3E5299FF529E5289A09
:1008A300F528E52799F527E52698F526E52D152D55
:0A08B300600302081C152C02081C4B
:0108BD002218
:0808BE008F3D8E3C8D3B8C3A0E
:1008C600E4FFFEFDFCAB3DAA3CA93BA83A1202019F
:1008D60050187F2D120F92AF3DAE3CAD3BAC3A1295
:1008E600026E8F3D8E3C8D3B8C3AE4FFFE7D807C14
:1008F6003FAB3DAA3CA93BA83A1202014049AF3D95
:10090600AE3CAD3BAC3A1202BD8E3F8F40120B316E
:10091600AF3DAE3CAD3BAC3AC004C005C006C00717
:10092600AC3FAD40E4120284A804A905AA06AB07B1
:10093600D007D006D005D0041200068F3D8E3C8D20
:100946003B8C3A153E80057F30120F927F2E120F98
:1009560092AF3DAE3CAD3BAC3A8036E53ED394001B
:100966004043153EAF3DAE3CAD3BAC3A1202BD8EA8
:100976003F8F40120F8EAC3FAD40E4120284A804B4
:10098600A905AA06AB07AF3DAE3CAD3BAC3A12009B
:1009960006E4FBFA792078411200FB8F3D8E3C8DF0
:0509A6003B8C3A80B615
:0109AB002229
:100D6000EF14B40700505B900D7575F003A4C583B4
:100D700025F0C58373020D8A020D92020D9A020DB1
:100D8000A2020DAA020DB2020DBA7BFF7A0E799271
:100D900080367BFF7A0E7999802E7BFF7A0E79A1BF
:100DA00080267BFF7A0E79AB801E7BFF7A0E79B4AA
:100DB00080167BFF7A0E79BB800E7BFF7A0E79C49A
:0C0DC00080067BFF7A0E79CB120F9E227A
:10000300020329E86480F8E933E83360110460F0FF
:10001300ED33EC337009E8FCE9FDEAFEEBFF220463
:1000230060DED3EB9FEA9EE99DE8C2E78CF0C2F75E
:1000330095F0400CE8CCF8E9CDF9EACEFAEBCFFB2A
:100043001202F485D0F05804700320D5B3E804708D
:10005300075002B2D502033392D5EC0460F7E4CC27
:10006300C0E0C398F8603B94186008400DD0E0FBF3
:1000730002030BE4FBFAC9FC8028E830E406E4C978
:10008300FBE4CAFCE830E305E4C9CACBFCE8540747
:100093006010F8C3E913F9EA13FAEB13FBEC13FC52
:1000A300D8F130F52FC3E49CFCEF9BFFEE9AFEEDF5
:1000B30099FDD0E0FBEF4E4D4C701222DB0302039F
:1000C30030EC2CFCEF33FFEE33FEED33FDED30E788
:1000D300EB02030BEF2BFFEE3AFEED39FDD0E0FB15
:1000E30050130BBB0003020333ED13FDEE13FEEFBE
:0800F30013FFEC13FC02030BE8
:1000FB00EC4D6011E8497017ED33EC3304600DE4FF
:10010B00FCFFFEFD22E933E8330470F802032912E9
:10011B0002F458046009E4CC2481500628500902EB
:10012B000333284003020330C0E0EB4A7044B9802C
:10013B0006D0E0FB02031FEF4E701CBD8008EBFFE7
:10014B00EAFEE9FD80EBE98DF0A4FEE5F00201E4A7
:10015B00E9CDF9EAFEEBFFEF89F0A4FCE5F0CE89DF
:10016B00F0A42EFFE435F0CD89F0A42DFEE435F09C
:10017B008067EF4E7005BD80D780C3EF8BF0A4ACCA
:10018B00F0EE8BF0A42CFCE435F0F8EF8AF0A42C05
:10019B00E5F038FCE433CB8DF0A42CFCE5F03BF818
:1001AB00EE8AF0A42CFCE5F038F8E433CF89F0A408
:1001BB002CFCE5F038CF3400CE89F0A42FFFE5F00E
:1001CB003EFEE433C98DF0A42EFEE5F039CD8AF066
:1001DB00A42FFFE5F03EFEE43DFD33D0E0FB5007DE
:1001EB000BBB000F020333EC2CFCEF33FFEE33FEA3
:0601FB00ED33FD02030BD1
:1002010074F8CC6480CCC86480C8F582046043C3B0
:10021100EB9FF5F0EA9E42F0E99D42F0E89C45F043
:1002210060305018E5825FFFE582F42B5582FB5068
:10023100210ABA001D09B90019088016E5825BFB85
:10024100E582F42F5582FF50090EBE00050DBD0059
:10025100010CC3EB9FF5F0EA9E42F0E99D42F0E804
:0D0261009C45F06007CC4820E701B3EC227B
:10026E00ED33EC33600A047003BD8004ECB2E7FC9E
:01027E00225D
:10027F0075F020800E75F010800575F0087D007EFA
:10028F00007F003392D530D50312052AEC3340108E
:10029F00EF33FFEE33FEED33FDEC33FCD5F0ED2203
:0E02AF00E5F0247EA2D513CC92E7CDCEFF223F
:1002BD00EDD2E7CD33EC3392D524814006E4FFFE39
:1002CD00FDFC22FCE4CFCECDCC24E0501174FF8098
:1002DD00EDC3CC13CCCD13CDCE13CECF13CF047035
:0702ED00F030D5DE02052A06
:1002F400E9D2E7C933E833F892D5EDD2E7CD33EC50
:0703040033FC5002B2D522C8
:10030B00EC30E7100FBF000C0EBE00080DBD000453
:10031B000BEB6014A2D5EB13FCED92E7FD2274FFFF
:10032B00FCFDFEFF22E480F8A2D574FF13FC7D8058
:03033B00E480EF6C
:03000000020FC329
:0C0FC300787FE4F6D8FD75814802059C9B
:10033E00BB010689828A83E0225002E722BBFE02BD
:09034E00E32289828A83E49322F0
:10035700BB010CE58229F582E5833AF583E022505B
:1003670006E92582F8E622BBFE06E92582F8E222A5
:0D037700E58229F582E5833AF583E49322BF
:10038400F8BB010DE58229F582E5833AF583E8F0AF
:10039400225006E92582C8F622BBFE05E92582C85B
:0203A400F22243
:1003A600EF8DF0A4A8F0CF8CF0A428CE8DF0A42E6B
:0203B600FE2225
:1003B800BC000BBE0029EF8DF084FFADF022E4CC29
:1003C800F875F008EF2FFFEE33FEEC33FCEE9DECF2
:1003D800984005FCEE9DFE0FD5F0E9E4CEFD22ED38
:1003E800F8F5F0EE8420D21CFEADF075F008EF2F82
:1003F800FFED33FD4007985006D5F0F222C398FD73
:050408000FD5F0EA220F
:10040D00E88FF0A4CC8BF0A42CFCE98EF0A42CFC8E
:10041D008AF0EDA42CFCEA8EF0A4CDA8F08BF0A40C
:10042D002DCC3825F0FDE98FF0A42CCD35F0FCEB6B
:10043D008EF0A4FEA9F0EB8FF0A4CFC5F02ECD3930
:0F044D00FEE43CFCEAA42DCE35F0FDE43CFC229D
:10045C0075F008758200EF2FFFEE33FECD33CDCC57
:10046C0033CCC58233C5829BED9AEC99E5829840DA
:10047C000CF582EE9BFEED9AFDEC99FC0FD5F0D6B7
:10048C00E4CEFBE4CDFAE4CCF9A88222B800C1B9E1
:10049C000059BA002DEC8BF084CFCECDFCE5F0CB1F
:1004AC00F97818EF2FFFEE33FEED33FDEC33FCEB58
:1004BC0033FB10D703994004EB99FB0FD8E5E4F913
:1004CC00FA227818EF2FFFEE33FEED33FDEC33FC00
:1004DC00C933C910D7059BE99A4007EC9BFCE99AF4
:1004EC00F90FD8E0E4C9FAE4CCFB2275F010EF2F39
:1004FC00FFEE33FEED33FDCC33CCC833C810D70739
:10050C009BEC9AE899400AED9BFDEC9AFCE899F873
:0E051C000FD5F0DAE4CDFBE4CCFAE4C8F92206
:100ED600C2D5E830E70FB2D5E4C39BFBE49AFAE447
:100EE60099F9E498F8EC30E717B2D5120F0C120412
:100EF60098E4C39BFBE49AFAE499F9E498F8800332
:100F060012049830D50DE4C39FFFE49EFEE49DFDD8
:040F1600E49CFC2239
:0E052A00C3E49FFFE49EFEE49DFDE49CFC22E2
:10053800E8600FECC313FCED13FDEE13FEEF13FFA1
:03054800D8F122C5
:10054B00E8600FEFC333FFEE33FEED33FDEC33FC0E
:03055B00D8F122B2
:10055E00BB010789828A830205845005E9F80205EA
:0A056E0078BBFE05E9F802059022B3
:0C057800ECF608EDF608EEF608EFF622AF
:0C058400ECF0A3EDF0A3EEF0A3EFF022EA
:0C059000ECF208EDF208EEF208EFF222A7
:00000001FF
