:100F9000486568652044657369676E656400413A19
:100FA000B0D9B1E4D0A1D3A300423ABDF8BBF7B5A4
:100FB000C4BEDEC8CB00D1A1D4F1B6AFBBADC6ACC8
:100FC000A3BA0020204120200020204220200069D8
:100FD00000203D2000576861742773596F75724E69
:100FE000616D653F004F68214120676F6F64206E1F
:100FF000616D65210041726520796F752061206700
:1010000069726C3F002059657300204E6F004C657B
:1010100074277320626520467269656E643F002004
:101020004F4B2100596F75722061726520612067F6
:101030006F6F6400206775792C5468616E6B20793E
:101040006F752100446F6E27742062652073687984
:101050007E0000576861742773596F757241676528
:101060003F00576F756C6420796F75202E2E2E2EE1
:101070002E0020006D61727279206D653F0049205D
:101080006C6F766520596F7521004E6F21212121EB
:101090002121212100576861742069732048656807
:0E10A000653F00204865686500203F3F3F0027
:1021630045000048656865004500053130300000D2
:0421730041000A0518
:0818FA008F2D8E2C8D2B8C2A02
:10190200E4F52EF52FE51F60277E017F0090000B86
:10191200E4F0A3DFFCDEFAAF2DAE2CAD2BAC2A7BBC
:10192200017A01790B75370175383E7539008017D8
:10193200AF2DAE2CAD2BAC2A7B017A00790B75371B
:101942000075383E753901753AC2121843E52D24E7
:1019520001F52DE4352CF52CE4352BF52BE4352A55
:10196200F52AAF2DAE2CAD2BFC7B017A0179CDE4AB
:10197200F537F538753902F53A121843E52D240189
:10198200F52DE4352CF52CE4352BF52BE4352AF531
:101992002AAF2DAE2CAD2BFC7B017A0379CDE4F579
:0B19A20037F538F539753A3E0218435E
:100B02001221447F647E001221991222037523FF71
:100B120075240F752590752DFF752E0F752FA97BE6
:100B2200FF7A0F799E121FE4752DFF752E0F752F18
:100B3200C37530FF75310F7532C97BFF7A0F79B6F5
:100B42001213D2400E7529C0752821752705752606
:100B520000800BE4752940752802F527F526121B43
:100B6200097521008F227BFF7A0F79CF1221F07B4A
:100B7200FF7A0F79D11221F0C3E5219400AE21AFA3
:100B820022E4FCFD50051214C780031216A812229B
:100B92006AAB23AA24A925E4FDFF121FB37FE87ED6
:100BA20003122199122246E4F521F522AF29AE283B
:100BB200AD27AC261218FA7B017A00790BAD22AC74
:100BC20021120E5BE5292440F529E43528F528E4B5
:100BD2003527F527E43526F5260522E5227002059C
:100BE20021C39470E521941740C27F0A7E0012212E
:100BF20099752D01752E00752F0075304175317A6A
:100C02007BFF7A0F79D512177D752DFF752E0F7523
:100C12002FE57B017A007900121FE4752DFF752EF6
:100C220010752F057530FF75311075320A7BFF7A0A
:100C32000F79F51213D2505A752DFF752E10752F9C
:100C42001F7530FF75311075320A7BFF7A10790EED
:100C52001213D24011752DFF752E10752F347BFFA4
:100C62007A107924800F752DFF752E10752F527B07
:100C7200FF7A107944121FE4752D01752E00752F2D
:100C8200057530307531397BFF7A10795312177D33
:100C92008064752DFF752E10752F727BFF7A107987
:100CA20062121FE4752DFF752E10752F747BFF7A6B
:100CB200107962121FE4752DFF752E10752F0575C0
:100CC20030FF75311075320A7BFF7A107974121376
:100CD200D24011752DFF752E10752F527BFF7A10A1
:100CE200797E800F752DFF752E10752F527BFF7A3E
:100CF20010798A121FE4752DFF752E10752FA375BA
:100D020030FF7531107532A97BFF7A107995021385
:010D1200D20E
:0B225F00EF1FAC0670011E4C70F62251
:10219900AB07AA06EB1BAE0270011A4E60097FE875
:0821A9007E0312225F80ED228B
:1019AD00EFB408004003021A5C9019BDF8282873A3
:1019BD000219D50219E60219F7021A08021A1902BC
:1019CD001A2A021A3B021A4CED1392B8EDC313708A
:1019DD000443B7FE2253B70122ED1392B9EDC313A1
:1019ED00700443B7FD2253B70222ED1392BAEDC333
:1019FD0013700443B7FB2253B70422ED1392BBEDD2
:101A0D00C313700443B7F72253B70822ED1392BCEA
:101A1D00EDC313700443B7EF2253B71022ED1392A9
:101A2D00BDEDC313700443B7DF2253B72022ED136E
:101A3D0092BEEDC313700443B7BF2253B74022EDDE
:101A4D001392BFEDC313700443B77F2253B78022A7
:101E54000D0A0009004D6F6E646179005475657355
:101E6400646179005765646E6573646179005468D0
:101E740075727364617900467269646179005361B3
:101E84007475726461790053756E64617900576585
:091E9400656B5F4552524F52008C
:10220300759850438920758DFD758BFDE4F587D254
:022213008E2219
:0721DD001203FDEF2430FFA7
:0C21E400C28C8F993099FDD28CC29922D8
:1021F00012033EFF600C1221E4740129F9E43AFA5B
:0322000080EE224B
:09226A007BFF7A1E79540221F079
:092273007BFF7A1E79570221F06D
:041BAC008E6A8F6B43
:101BB000E4FBFA856A6C856B6DAE6CAF6D7C007D65
:101BC0000A1203FD8E6C8F6D0BBB00010AD3E56D0D
:101BD0009400E56C940050E1D3EB9400EA9400404B
:101BE0005D8B828A83756C00756D01D3E5829401EB
:101BF000E58394004019E582158270021583AE6C6E
:101C0000AF6D7C007D0A1203EB8E6C8F6D80DCACB7
:101C10006CAD6DAE6AAF6B1221DDAC6CAD6DAE6AB2
:101C2000AF6B1203FDAC6CAD6D1203EBC3E56B9FA4
:0E1C3000F56BE56A9EF56AEB1B709D1A809AB3
:011C3E002283
:041A5D008E6E8F6F8B
:101A6100E4FBFAC3E56E6480948050107F2D12214F
:101A7100E4C3E4956FF56FE4956EF56E856E708540
:101A81006F71AE70AF717C007D0A1203FD8E708F95
:101A9100710BBB00010AD3E5719400E5709400500D
:101AA100E1D3EB9400EA9400405D8B828A837570E8
:101AB10000757101D3E5829401E58394004019E535
:101AC10082158270021583AE70AF717C007D0A129F
:101AD10003EB8E708F7180DCAC70AD71AE6EAF6F49
:101AE1001221DDAC70AD71AE6EAF6F1203FDAC7043
:101AF100AD711203EBC3E56F9FF56FE56E9EF56E59
:071B0100EB1B709D1A809A96
:011B080022BA
:0816A8008F3A8E398D388C3722
:1016B000E4F53DF53E8E3B8F3CAE3BAF3C7C007D80
:1016C0000A1203FD8E3B8F3C053EE53E7002053D50
:1016D000D3E53C9400E53B940050DED3E53E940016
:1016E000E53D9400500302177CAB3EAA3D753B00DC
:1016F000753C01D3EB9401EA94004016EB1B70019A
:101700001AAE3BAF3C7C007D0A1203EB8E3B8F3C54
:1017100080E1AE3BAF3CAB07AA06E4F9F8AF3AAEC6
:1017200039AD38AC371204DD1221E0AE3BAF3CAB33
:1017300007AA06E4F9F8AF3AAE39AD38AC3712046F
:10174000DDA804A905AA06AB07AE3BAF3CE4FCFD4F
:10175000120452A804A905AA06C3E53A9FF53AE582
:10176000399AF539E53899F538E53798F537E53E92
:0C177000153E60030216DB153D0216DB7F
:01177C00224A
:0814C7008F3A8E398D388C3705
:1014CF00E4F53DF53EEC3350187F2D1221E4AF3A91
:1014DF00AE39AD38AC3712056F8F3A8E398D388CE7
:1014EF003785393B853A3CAE3BAF3C7C007D0A12D9
:1014FF0003FD8E3B8F3C053EE53E7002053DD3E577
:10150F003C9400E53B940050DED3E53E9400E53D6E
:10151F00940050030215B9AB3EAA3D753B00753CD4
:10152F0001D3EB9401EA94004016EB1B70011AAE45
:10153F003BAF3C7C007D0A1203EB8E3B8F3C80E17E
:10154F00AE3BAF3CAB07AA06E4F9F8AF3AAE39AD04
:10155F0038AC37121EE51221E0AE3BAF3CAB07AA09
:10156F0006E4F9F8AF3AAE39AD38AC37121EE5A83C
:10157F0004A905AA06AB07AE3BAF3CE4FCFD120481
:10158F0052A804A905AA06C3E53A9FF53AE5399A88
:10159F00F539E53899F538E53798F537E53E153ED5
:0A15AF006003021518153D0215181F
:0115B900220F
:0815BA008F668E658D648C6361
:1015C200E4FFFEFDFCAB66AA65A964A863120201F2
:1015D20050187F2D1221E4AF66AE65AD64AC631284
:1015E200026E8F668E658D648C63E4FFFE7D807C67
:1015F2003FAB66AA65A964A8631202014049AF66BF
:10160200AE65AD64AC631202BD8E688F69121A5D5D
:10161200AF66AE65AD64AC63C004C005C006C0076A
:10162200AC68AD69E4120284A804A905AA06AB0756
:10163200D007D006D005D0041200068F668E658DC5
:10164200648C63156780057F301221E47F2E12219E
:10165200E4AF66AE65AD64AC638036E567D39400F3
:1016620040431567AF66AE65AD64AC631202BD8ED2
:10167200688F691221E0AC68AD69E4120284A804A3
:10168200A905AA06AB07AF66AE65AD64AC631200EE
:1016920006E4FBFA792078411200FB8F668E658D95
:0516A200648C6380B6BA
:0116A7002220
:101DE800EF14B40700505B901DFD75F003A4C58384
:101DF80025F0C58373021E12021E1A021E22021E3D
:101E08002A021E32021E3A021E427BFF7A1E7959AE
:101E180080367BFF7A1E7960802E7BFF7A1E796878
:101E280080267BFF7A1E7972801E7BFF7A1E797B63
:101E380080167BFF7A1E7982800E7BFF7A1E798B53
:0C1E480080067BFF7A1E79921221F022A6
:0F22370074656D705F737461746500203D2000E5
:0521770042040B000012
:101F6C001FEF1313543FFE7401A806088002C333FD
:101F7C00D8FCF4F5B0E5B0F4C4540FFD7C00EF547C
:101F8C0003FF74017E00A807088005C333CE33CE4F
:0F1F9C00D8F9FFEE5CFEEF5D4E6002D322C32248
:0221C800AB0763
:1021CA00E4FAAF03121F6C50080AEA94C840F3D32A
:0221DA0022C31E
:0121DC0022E0
:10221500AB07121F6C400122AF03121F6C40F9D3AC
:012225002296
:10222600A9071221C85008AF01122215500122C376
:012236002285
:041F2900AF34AE33F0
:041F2D00AB07AA064E
:101F3100E4F9F53775380109E5375AFEE5385B4EA6
:101F41006015AF01121F6C400EE538F4FFE537F460
:101F5100FEEF5203EE5202E53825E0F538E537335E
:0A1F6100F53709B911D2AE02AF0343
:011F6B002253
:041D5D008E338F34FE
:101D6100E4F535F536E5344533700FE53645357024
:101D710061121F298E358F3680F1300115E53665E8
:101D8100347004E53565336049121F298E358F366D
:101D910080EB7BFF7A2279371221F07BFF7A22795F
:101DA100421221F0C3E5359400AE35AF36E4FCFDB7
:101DB10050051214C780031216A812226AE5355580
:101DC10033FEE53655344E7009121F298E358F3694
:101DD10080EB121F29EF4E70F990040BE535F0A34B
:061DE100E536F0AE35FF0F
:011DE70022D9
:1005F20020202020202020202020202020202020F9
:10060200003E003C00200020202020202000BAC70D
:10061200BAC7D7D6C4BBD7E900D4CCB2D8BADAB0FD
:10062200B5C1A6C1BFB5C400D4BFB3D7B0A100D471
:10063200DACED2C3E6C7B0CFD4CABE00C4E3D5E691
:10064200CAB5B5C4C1A6C1BFB0C900B8F9BEDDC63E
:10065200F5D4BC00D0A1D3A3C3FCC1EEC4E30052C5
:10066200656C65617365212100B7E7A3A100B4F34E
:10067200CFF3B2EEB5E300BECDCADCC9CBC1CBD25B
:10068200AE00C3BBCFEBB5BDC4DCB6AAC6F000D585
:10069200E2C3B4D6D8B5C4B4F3CFF300B5BDB5D771
:1006A200CAC7CAB2C3B4C5C6C4D800B0A1A3A1CE3A
:1006B200D2D6AAB5C0C1CB00DFB4C0EFB9BEE0E06C
:1006C200DFB4C0EFB9BEE0E000B5ABCAC72E2E2E34
:1006D2002E2E00BFECB5E3BEC8B4F3CFF3B0C9A36E
:1006E200A100B5C8D2BBCFC2A3A100C4E3CAC7C18F
:1006F200A6C5C6B6D4B0C900D2AAB2BBD2AAB8FAAD
:10070200CED200B1C8D2BBB1C8C1A6C6F8A3BF0041
:10071200CEAACAB2C3B4D2AAB1C8C1A6C6F8A3BFF0
:1007220000C1A6C5C6BADCBDBEB0C100B6D4D3DA1C
:10073200D7D4BCBAB5C4C1A6C1BF00D6A4BEDDBE63
:10074200CDD4DAC4C7C0EF00B0A1A3A1A3A100CC4D
:10075200F8A3A100CBFCB9C0B4C1CBA3A100C4E3F0
:10076200BFB4A3A100BBB9BAC3C4E3D3C3C1CBCC4A
:10077200F8C5C600CAB2C3B4BBB9BAC3B2BBBBB92F
:10078200BAC300B5C4B0A1A3A100C4E3BBB9B2BB54
:10079200BFECB8FACBFCCBB500D3C3CAB2C3B4B179
:1007A200C8C1A6C6F8A3BF00D2AAD4F5C3B4B8FA8A
:1007B200CBFCB1C8B0A1A3BF00D5E2BCD2BBEFBF96
:1007C200B4C6F0C0B400D3A6B8C3BADCBAC3BDE2A3
:1007D200BEF6B0C900B0A1A3A1D3D6C0B4C1CBA309
:1007E200A1A3A100CED2D4F5C3B4BFC9C4DC00D347
:1007F200AECBFCC2EF00C4E3D4D9B2BBCBB5A3AC41
:10080200CBFCBBE100D2BBD6B1D7B7D7C5CED2C3E2
:10081200C7B0A100B0CE2E2E2E2EB0CEBAD3A3A139
:1008220000C1A6C5C6D4ADC0B400D5E2C3B4BFC929
:10083200B0AEB0A100C4E3B1F0D0A1BFB4CBFC0014
:10084200B7F1D4F2BBE1B3D4B4F3BFF7E0DE00D02A
:10085200A1BFC900B8D0B5BDCEA3CFD5CAB100C41F
:10086200E3BECDB7C5CAD6B0C900D0A1BFC9A3A146
:1008720000D0A1D3A3A3A1D3C3C5C6D1BDA3A10058
:10088200BFECD1BDA3A1D3C3B7E7C5C600B6D4B8E8
:10089200B6C4C7BCD2BBEFA3A100CED2B5C4CAD6E0
:1008A200C3BBB0ECB7A8B6AFB0A100B4F3CFF3A30B
:1008B200A100BCD3D3CDA3A100CAB1A3A100B8C3E8
:1008C200B2BBBBE1CAC7D3AEC1CBB0C9A3BF00BAEA
:1008D200C3CFF1CAC7D2AE00CED2D3AEC0B2A3A1AB
:1008E200CED2D3AEC0B2A3A100D0BBD0BBA3A100D5
:1008F200B6BCCAC7D2F2CEAAC4E3B5C4B0EFC3A68F
:1009020000D0A1D3A3A3A100BFECB5E3B7E2D3A16A
:10091200CBFCB0A100BBD6B8B4C4E3D4ADC0B4B56F
:10092200C4D1F9D7D300BFE2C2E5C5C6A3A100D5A1
:10093200E6CAC7D5C500B0AEC8C7C2E9B7B3B5C429
:10094200C5C600C4E3B8C9B5C3CCABBAC3C0B20014
:10095200CED2BBB9D2D4CEAACED2CAE4C1CBC4D8ED
:1009620000B8D5B2C5D5E6CEA3CFD5C4D800B2BBA8
:10097200D6AAB5C0CAF7C0C100CCE1C6F0B8C9BE9C
:10098200A2C1CBC3BB00D0A1BFC9A3ACD5E2D5C520
:10099200C5C6A3BF00B5B1C8BBCAC7CAB9D3C3BA1B
:1009A200F300BECDBBE1C1A6B4F3CEDEC7EE00D0EC
:1009B200A1D3A300CED2D3D0CAC2CFEBB0DDCDD06B
:1009C200C4E300DFD7A3BF00D6AACAC0A3A100C454
:1009D200E3D4DABFB4CAB2C3B4A3BF00D5E2D5C56B
:1009E200D5D5C6ACCAC72E2E2E2E00D0BBD0BBA3E7
:1009F200A1CED2BBE1C1F4CFC200D7F7CEAABCCD03
:100A0200C4EEB5C400C4E3B2BBC4DCC4C3B8F800CE
:100A1200B1F0C8CBBFB4E0DE00BAC3A3A100D4E7F3
:100A2200A3A100D4E7B0B2A3A100CCCBB5D7F2CC3E
:100A3200ECB7A2C9FA00BADCB6E0CAC2E0DE00C472
:100A4200E3C3C7B2BBD2AABDF4B0C900CAC7A3A14F
:100A520000C4C7CAC7D7F2CCECB5C4D5D5C6ACC2A0
:100A6200F0A3BF00E0C500B0A12E2E2E2E2E2E0028
:100A7200D5E2CAC72E2E2E2E2E2E00D4F5C3B4B028
:100A8200EC2E2E2E2E2E2E00CED2B5C4C4A7B7A881
:100A92002E2E2E00CBB5B2BBB6A8BBE1B4A9B0EFE7
:100AA2002E2E2E2E00D0A1D3A3A3ACC3BBCFEBB569
:100AB200BD00C4E3B5C4C1A6C6F8D5E2C3B4B4F35D
:100AC200B0A100C4C72E2EC4C7CAC7BACFB3C9D5F6
:100AD200D5C6AC00CED2CFEBD2B2CAC7C4D800C3FF
:100AE200BBD3D0C4A7C1A6B5C4BBB000D5E2D6D68D
:100AF200CAC2B8F9B1BE00B0ECB2BBB5BDB0C90054
:03217C00011F0040
:10204A00E538C31375F008A42480FFE5385401C4A9
:0A205A0054F02FFFE537C3132FFFEA
:10206400C2A48F80D2A67F147E0012225FC2A67FF4
:06207400147E0002225F51
:1020D700AB2DAA2EA92F853282758300120357FFD5
:1020E700D2A48F80D2A67F147E0012225FC2A67F61
:0620F700147E0002225FCE
:102019008E788F79D2A4E578F580D2A67F147E00D8
:1020290012225FC2A68579807F147E0012225FD2B8
:10203900A67F147E0012225FC2A67F147E000222B0
:012049005F37
:10218000C2A6D2A4D2A57580FFD2A67F147E00126B
:08219000225FAF80C2A6C2A5C8
:012198002224
:10214400C2A6C2A57F381220647F0C1220647F06C9
:0F2154001220647F011220647F147E0002219903
:0C2253007F011220647F147E000221999C
:07212300E53225E0FF7D011C
:04212A008F378D3826
:10212E0012204AE53730E00D1221808F3912204AF5
:05213E00AF391220E79B
:012143002279
:1020A9008B728A738974AB72AA73A97412033E6026
:1020B900130574E5747002057314F912033EFF12D7
:0E20C90020E780E2AB72AA73A974E40203B7A9
:081FAB007BFF7A0579F2E4FFE7
:101FB3008B348A35893612212AAB34AA35A93612D5
:101FC300033E60130536E5367002053514F9120336
:101FD3003EFF1220E780E2AB34AA35A936E40203C0
:011FE300B746
:0810AE008F438E428D418C40FE
:1010B600E4F548F549EC3350187F2D1220E7AF438D
:1010C600AE42AD41AC4012056F8F438E428D418CCE
:1010D60040854347854246854145854044AF47AEF6
:1010E60046AD45AC44E47B0AFAF9F81204DD8F47B5
:1010F6008E468D458C440549E54970020548E4FF56
:10110600FEFDFCAB47AA46A945A844D312057D506F
:10111600CCD3E5499400E548940050030211C485F8
:101126004982854883E4754701F546F545F544D37C
:10113600E5829401E58394004023E58215827002DE
:101146001583AF47AE46AD45AC44E47B0AFAF9F8E1
:101156001204528F478E468D458C4480D2AF43AEE3
:1011660042AD41AC40AB47AA46A945A8441204DDAE
:10117600EF2430FF1220E7AF43AE42AD41AC40ABA7
:1011860047AA46A945A8441204DDAB47AA46A94585
:10119600A844120452AA06A905A804C3E5439FF56C
:1011A60043E5429AF542E54199F541E54098F54017
:0E11B600E5491549600302111715480211178B
:0111C4002208
:0812CC008F4D8E4C8D4B8C4AB6
:1012D400E4FFFEFDFCAB4DAA4CA94BA84A12020147
:1012E40050187F2D1220E7AF4DAE4CAD4BAC4A12D7
:1012F400026E8F4D8E4C8D4B8C4AE4FFFE7D807CBC
:101304003FAB4DAA4CA94BA84A1202014051AF4D24
:10131400AE4CAD4BAC4A1202BD8F528E518D508CE7
:101324004F1210AEAF4DAE4CAD4BAC4AC004C0052D
:10133400C006C007AF52AE51AD50AC4FEC12027FA5
:10134400A804A905AA06AB07D007D006D005D00487
:101354001200068F4D8E4C8D4B8C4A154E80057FA6
:10136400301220E77F2E1220E7AF4DAE4CAD4BACD0
:101374004A8046E54ED394004053154EAF4DAE4CD3
:10138400AD4BAC4A1202BDEE3395E08F528E51F54F
:1013940050F54FEF2430FF1220E7AF52AE51AD505D
:1013A400AC4FEC12027FA804A905AA06AB07AF4D07
:1013B400AE4CAD4BAC4A120006E4FBFA79207841FE
:0D13C4001200FB8F4D8E4C8D4B8C4A80A685
:0113D10022F9
:101FE4008B2A8A2B892C122253AB2AAA2BA92CE4E4
:101FF400FDFF121FB3AB2DAA2EA92F7D01E4FF1202
:102004001FB3C2017F017E00121D5D1222537F3275
:052014007E000221998D
:0613D2008B2A8A2B892CF6
:1013D800C2001222537BFF7A0579F2E4FDFF121F47
:1013E800B3AB2AAA2BA92CE4FDFF121FB37D01126F
:1013F8001FABAB2DAA2EA92F7D017F01121FB3AB06
:1014080030AA31A9327D017F09121FB37BFF7A060A
:1014180079037D01E4FF121FB37BFF7A0679057D0E
:10142800017F07121FB37BFF7A0679077D017F08CA
:10143800121FB37BFF7A067907806EC2017F037E95
:1014480000121D5DEF64014E6068B2007BFF200052
:101458002D7A0679037D01E4FF121FB37BFF7A061C
:1014680079057D017F07121FB37BFF7A0679077D17
:10147800017F08121FB37BFF7A067907802B7A0653
:1014880079077D01E4FF121FB37BFF7A0679077D98
:10149800017F07121FB37BFF7A0679037D017F085E
:1014A800121FB37BFF7A0679057D017F0F121FB3E8
:0E14B80080891222537F327E00122199A200F9
:0114C6002203
:080D13008F538B548A55895659
:100D1B00E4F557F558D20212225390040BE4F0A3DA
:100D2B0004F090040BE07004A3E064017018055705
:100D3B00E557D395534003755701E5575407FFBF4C
:100D4B00011AD20280161557E557C3940150058539
:100D5B005357D202E55754077002D202E55724FFCE
:100D6B00FFE434FFFEEF7803CEC313CE13D8F9752F
:100D7B00F008A4F558E5572407FFE433FEEF78039A
:100D8B00CEC313CE13D8F975F008A4FFC3E5589F53
:100D9B00E5F06480F87480984003020E3AE55854ED
:100DAB000175F008A4F559E5585407C313F55A30EB
:100DBB00022FE55904FF7BFF7A067909AD5A121F02
:100DCB00B3E558C395535019E55875F00AA4AB54C5
:100DDB002556F9E55535F0FAE55904FFAD5A121FC2
:100DEB00B3E5582401FFE433FE7C00EFB5571EEC4E
:100DFB00B5061A7BFF7A067903AD5AAF59121FB3AA
:100E0B00E5592407FF7BFF7A06790580187BFF7A6B
:100E1B00067907AD5AAF59121FB3E5592407FF7B6B
:100E2B00FF7A067907AD5A121FB30558020D80C21F
:100E3B0002C2017F077E00121D5DEF64024E60034C
:0F0E4B00020D2D1222537F327E001221997F005B
:010E5A002275
:06177D008B2A8A2B892C47
:10178300E4F532122253AB2AAA2BA92CE4FDFF1253
:101793001FB3E4F532AB2DAA2EA92F8532827583B0
:1017A30000120357600A1221231220D7053280E565
:1017B300E4F5327F0F122064AB2DAA2EA92F8532B8
:1017C3008275830012035760688040C2017F077EE1
:1017D30000121D5DEF64024E7036AB2DAA2EA92FA9
:1017E300853282F583041203848532827583001265
:1017F3000357D395314011AB2DAA2EA92F853282E1
:10180300758300E5301203C91220D712212380BB50
:1018130090040BE0FEA3E0FF64044E7009E532D3AD
:10182300940040021532EF64014E708C05320217AA
:10183300BB7F0C1220641222537F327E0002219957
:0D2246001222537F341220647F3602206480
:1020FD008B758A7689777F321220647D03121FAB30
:10210D00AB75AA76A9777D03E4FF121FB37F361254
:06211D002064751F122270
:1021B1007F321220647BFF7A0579F27D03E4FF12FE
:0721C1001FB37F360220640A
:0A0E5B008B2A8A2B892C8C2D8D2EFA
:100E6500E4F52FF530E51FD394004002151FE51F6B
:100E7500640170031221B1C3E530648094A040037E
:100E8500020F89C2A4E5302480F5807F0A7E001216
:100E9500225FD2A67F0A7E0012225FC2A6E52F241A
:100EA50080F5807F0A7E0012225FD2A67F0A7E002F
:100EB50012225FC2A6D2A4AF30EF3395E0FEC37411
:100EC5003F9FFFE49EFEEFC4F8540FC868FFEEC4D1
:100ED50054F048FEE52C2FF9E52B3E852A31F532F5
:100EE50089337F0A7E0012225FC3E52F64809490C8
:100EF5004003020F81E52FB4082BAF30EF3395E0A7
:100F0500FEC3741F9FFFE49EFEEFC4F8540FC8682C
:100F1500FFEEC454F048FEE52C2FF9E52B3E852A5B
:100F250031F5328933AB310533E533AA3270020529
:100F35003214F912033EF5807F027E0012225FD241
:100F4500A67F017E0012225F00000000C2A6AB3121
:100F55000533E533AA327002053214F912033EF562
:100F6500807F027E0012225FD2A67F017E001222C0
:100F75005F00000000C2A6052F020EEEE4F52F0566
:0B0F850030020E7C7F057E00022199E7
:0B207A00AF3FAE3EAD3DAC3C12058E0A
:10208500E4FEC293EF30E704D2918002C291EF25BE
:10209500E0FF30920543070180035307FED2930EFC
:0320A500BE08DF93
:0120A8002215
:021E9D00AD078F
:101E9F007FFF122085C297ED4440FF1220857818EE
:101EAF0012207A781012207AAF3FAE3EAD3DAC3C97
:101EBF00780812058E122085AF3F1220857F95126C
:101ECF002085E4FD7FFF122085BFFF070DEDD39422
:051EDF006440F1D29700
:011EE40022DB
:101B0900D297E4FD7FFF1220850DBD64F7E4FBE465
:101B1900F53FF53EF53DF53CFF121E9D0BEBD394C9
:101B29006440037F0122BF01E6E4FBE4F53FF53E93
:101B3900F53DF53C7F08121E9DAE030BEEC39414D0
:101B490040E9E4FBE4F53FF53EF53DF53C7F37120E
:101B59001E9DE4F53FF53EF53DF53C7F29121E9D9E
:101B6900AE030BEEC3941440DBE4F53FF53EF53DBF
:101B7900F53C7F01121E9D0BEBD3946440037F015A
:101B890022EF70E5F53FF53EF53DF53C7F3B121E32
:101B99009DE4F53F753E02F53DF53C7F10121E9D13
:021BA9007F00BB
:011BAB002217
:0E1843008F338E328D318C308B348A3589365E
:10185100E4FBAF33AE32AD31AC3078091205A18F64
:101861003F8E3E8D3D8C3C7F11121E9D0BEBD39420
:101871006440037F0122EF70D9C2977FFF12208558
:10188100BFFEF8E4FDFCC3ED9538EC9537500C7FB5
:10189100FF1220850DBD00010C80EBE4FCFDC3EDC2
:1018A100953AEC9539501A7FFF122085AB34AA3551
:1018B100A9368D828C83EF1203C90DBD00010C8006
:1018C100DDE4FCFDC3E49538FF74029537FEC3EFF8
:1018D100953AFFEE9539FEC3ED9FEC9E500C7FFFCC
:1018E1001220850DBD00010C80DA7FFF1220857F5B
:0818F100FF122085D2977F0051
:0118F90022CC
:0E1C3F008F5E8E5D8D5C8C5B8B5F8A60896131
:101C4D00E4FBAF5EAE5DAD5CAC5B78091205A18FB8
:101C5D003F8E3E8D3D8C3C7F18121E9D8F620BEB8F
:101C6D00D3946440037F0122E56270D6C2977FFF53
:101C7D001220857FFE122085E4FDFCAB5FAA60A9D2
:101C8D00618D828C83120357FF1220850DBD0001DB
:101C9D000CE4B505E6ECB402E27FFF1220857FFF70
:101CAD001220857FFF1220858F62E562541F640527
:101CBD006005D2977F01227FFF122085EF60F8D259
:031CCD00977F00FE
:011CD00022F1
:0611C5008B088A09890A6B
:1011CB00E4F53FF53EF53DF53C7F09121E9DEF60C2
:1011DB00037F0122C2977FFF122085BFFEF8E4F543
:1011EB001BF51C7FFF122085740B251CF8A6070529
:1011FB001CE51C7002051BC39410E51B940040E317
:10120B007FFF1220857FFF122085D297E50BC41339
:10121B00135403751B00F51C451B7073E5155480A7
:10122B00C41313135401FFE510540F2FFDE433FCCB
:10123B00E514540325E0FFE433FEED2FFFEC3ECF26
:10124B002402F51CE43FF51BE51275F004A4FFE541
:10125B0013C4131354037C002FFDEC35F0FCE51184
:10126B0054037F0025E025E0FEEF2DFFEC3ECF245D
:10127B0001F51EE43FF51DFEAF1EE4FCFDE51C244D
:10128B00F7F9F81205A1AB08AA09A90A1205B4E5EA
:10129B001C6401451B7027E513FE7C00E42514FF3D
:1012AB00EC3ECF2401F51EE43FF51DFEAF1EE4FD21
:1012BB00780A1205A1AB08AA09A90A1205B47F0086
:0112CB002200
:10000300020329E86480F8E933E83360110460F0FF
:10001300ED33EC337009E8FCE9FDEAFEEBFF220463
:1000230060DED3EB9FEA9EE99DE8C2E78CF0C2F75E
:1000330095F0400CE8CCF8E9CDF9EACEFAEBCFFB2A
:100043001202F485D0F05804700320D5B3E804708D
:10005300075002B2D502033392D5EC0460F7E4CC27
:10006300C0E0C398F8603B94186008400DD0E0FBF3
:1000730002030BE4FBFAC9FC8028E830E406E4C978
:10008300FBE4CAFCE830E305E4C9CACBFCE8540747
:100093006010F8C3E913F9EA13FAEB13FBEC13FC52
:1000A300D8F130F52FC3E49CFCEF9BFFEE9AFEEDF5
:1000B30099FDD0E0FBEF4E4D4C701222DB0302039F
:1000C30030EC2CFCEF33FFEE33FEED33FDED30E788
:1000D300EB02030BEF2BFFEE3AFEED39FDD0E0FB15
:1000E30050130BBB0003020333ED13FDEE13FEEFBE
:0800F30013FFEC13FC02030BE8
:1000FB00EC4D6011E8497017ED33EC3304600DE4FF
:10010B00FCFFFEFD22E933E8330470F802032912E9
:10011B0002F458046009E4CC2481500628500902EB
:10012B000333284003020330C0E0EB4A7044B9802C
:10013B0006D0E0FB02031FEF4E701CBD8008EBFFE7
:10014B00EAFEE9FD80EBE98DF0A4FEE5F00201E4A7
:10015B00E9CDF9EAFEEBFFEF89F0A4FCE5F0CE89DF
:10016B00F0A42EFFE435F0CD89F0A42DFEE435F09C
:10017B008067EF4E7005BD80D780C3EF8BF0A4ACCA
:10018B00F0EE8BF0A42CFCE435F0F8EF8AF0A42C05
:10019B00E5F038FCE433CB8DF0A42CFCE5F03BF818
:1001AB00EE8AF0A42CFCE5F038F8E433CF89F0A408
:1001BB002CFCE5F038CF3400CE89F0A42FFFE5F00E
:1001CB003EFEE433C98DF0A42EFEE5F039CD8AF066
:1001DB00A42FFFE5F03EFEE43DFD33D0E0FB5007DE
:1001EB000BBB000F020333EC2CFCEF33FFEE33FEA3
:0601FB00ED33FD02030BD1
:1002010074F8CC6480CCC86480C8F582046043C3B0
:10021100EB9FF5F0EA9E42F0E99D42F0E89C45F043
:1002210060305018E5825FFFE582F42B5582FB5068
:10023100210ABA001D09B90019088016E5825BFB85
:10024100E582F42F5582FF50090EBE00050DBD0059
:10025100010CC3EB9FF5F0EA9E42F0E99D42F0E804
:0D0261009C45F06007CC4820E701B3EC227B
:10026E00ED33EC33600A047003BD8004ECB2E7FC9E
:01027E00225D
:10027F0075F020800E75F010800575F0087D007EFA
:10028F00007F003392D530D50312056FEC33401049
:10029F00EF33FFEE33FEED33FDEC33FCD5F0ED2203
:0E02AF00E5F0247EA2D513CC92E7CDCEFF223F
:1002BD00EDD2E7CD33EC3392D524814006E4FFFE39
:1002CD00FDFC22FCE4CFCECDCC24E0501174FF8098
:1002DD00EDC3CC13CCCD13CDCE13CECF13CF047035
:0702ED00F030D5DE02056FC1
:1002F400E9D2E7C933E833F892D5EDD2E7CD33EC50
:0703040033FC5002B2D522C8
:10030B00EC30E7100FBF000C0EBE00080DBD000453
:10031B000BEB6014A2D5EB13FCED92E7FD2274FFFF
:10032B00FCFDFEFF22E480F8A2D574FF13FC7D8058
:03033B00E480EF6C
:03000000021CD10E
:0C1CD100787FE4F6D8FD758179021D18BB
:10033E00BB010689828A83E0225002E722BBFE02BD
:09034E00E32289828A83E49322F0
:10035700BB010CE58229F582E5833AF583E022505B
:1003670006E92582F8E622BBFE06E92582F8E222A5
:0D037700E58229F582E5833AF583E49322BF
:10038400BB010FF8E58229F582E5833AF583E0287D
:10039400F0225009C58229F8E58226F622BBFE091F
:1003A400C58229F8E22582F222F8EA2583F583E959
:0303B40093282269
:1003B700BB010689828A83F0225002F722BBFE0125
:0203C700F3221F
:1003C900F8BB010DE58229F582E5833AF583E8F06A
:1003D900225006E92582C8F622BBFE05E92582C816
:0203E900F222FE
:1003EB00EF8DF0A4A8F0CF8CF0A428CE8DF0A42E26
:0203FB00FE22E0
:1003FD00BC000BBE0029EF8DF084FFADF022E4CCE4
:10040D00F875F008EF2FFFEE33FEEC33FCEE9DECAC
:10041D00984005FCEE9DFE0FD5F0E9E4CEFD22EDF2
:10042D00F8F5F0EE8420D21CFEADF075F008EF2F3C
:10043D00FFED33FD4007985006D5F0F222C398FD2D
:05044D000FD5F0EA22CA
:10045200E88FF0A4CC8BF0A42CFCE98EF0A42CFC49
:100462008AF0EDA42CFCEA8EF0A4CDA8F08BF0A4C7
:100472002DCC3825F0FDE98FF0A42CCD35F0FCEB26
:100482008EF0A4FEA9F0EB8FF0A4CFC5F02ECD39EB
:0F049200FEE43CFCEAA42DCE35F0FDE43CFC2258
:1004A10075F008758200EF2FFFEE33FECD33CDCC12
:1004B10033CCC58233C5829BED9AEC99E582984095
:1004C1000CF582EE9BFEED9AFDEC99FC0FD5F0D672
:1004D100E4CEFBE4CDFAE4CCF9A88222B800C1B99C
:1004E1000059BA002DEC8BF084CFCECDFCE5F0CBDA
:1004F100F97818EF2FFFEE33FEED33FDEC33FCEB13
:1005010033FB10D703994004EB99FB0FD8E5E4F9CD
:10051100FA227818EF2FFFEE33FEED33FDEC33FCBA
:10052100C933C910D7059BE99A4007EC9BFCE99AAE
:10053100F90FD8E0E4C9FAE4CCFB2275F010EF2FF3
:10054100FFEE33FEED33FDCC33CCC833C810D707F3
:100551009BEC9AE899400AED9BFDEC9AFCE899F82E
:0E0561000FD5F0DAE4CDFBE4CCFAE4C8F922C1
:101EE500C2D5E830E70FB2D5E4C39BFBE49AFAE428
:101EF50099F9E498F8EC30E717B2D5121F1B1204D4
:101F0500DDE4C39BFBE49AFAE499F9E498F88003CD
:101F15001204DD30D50DE4C39FFFE49EFEE49DFD74
:041F2500E49CFC221A
:0E056F00C3E49FFFE49EFEE49DFDE49CFC229D
:10057D00EB9FF5F0EA9E42F0E99D42F0E89C45F0D4
:01058D00224B
:10058E00E8600FECC313FCED13FDEE13FEEF13FF4B
:03059E00D8F1226F
:1005A100E8600FEFC333FFEE33FEED33FDEC33FCB8
:0305B100D8F1225C
:1005B400BB010789828A830205DA5005E9F802053E
:0A05C400CEBBFE05E9F80205E622B1
:101CDD00020B02E493A3F8E493A34003F68001F210
:101CED0008DFF48029E493A3F85407240CC8C33308
:101CFD00C4540F4420C8834004F456800146F6DFD7
:101D0D00E4800B0102040810204080902163E47EE2
:101D1D00019360BCA3FF543F30E509541FFEE493CB
:101D2D00A360010ECF54C025E060A840B8E493A392
:101D3D00FAE493A3F8E493A3C8C582C8CAC583CABD
:101D4D00F0A3C8C582C8CAC583CADFE9DEE780BE75
:01217F00005F
:0C05CE00ECF608EDF608EEF608EFF62259
:0C05DA00ECF0A3EDF0A3EEF0A3EFF02294
:0C05E600ECF208EDF208EEF208EFF22251
:00000001FF
